S0210000546174615F6163655F636861737369735F7663755F636F64652E73726563FD
S1130000007000201104000059040000590400008D
S113001059040000590400005904000000000000C5
S1130020000000000000000000000000590400006F
S1130030590400000000000059040000B1550000FC
S11300401F2A0000292A0000332A00003D2A00004C
S1130050472A0000512A00005B2A0000652A00009C
S11300606F2A0000792A0000832A00008D2A0000EC
S1130070972A0000A12A0000AB2A0000B52A00003C
S1130080BF2A00005904000059040000590400006C
S113009059040000590400005904000059040000E8
S11300A05904000059040000953E00009F3E0000E2
S11300B0A93E00005904000059040000590400003E
S11300C059040000590400005904000059040000B8
S11300D059040000590400005904000059040000A8
S11300E05904000059040000590400005904000098
S11300F05904000059040000590400005904000088
S11301005904000059040000590400005904000077
S11301105904000059040000590400005904000067
S11301205904000059040000590400005904000057
S11301305904000059040000590400005904000047
S11301405904000059040000590400005904000037
S11301505904000059040000590400005904000027
S11301605904000059040000590400005904000017
S113017059040000590400004D3B0000573B0000A7
S1130180613B00006B3B0000753B0000590400001C
S1130190590400007F3B0000893B00005904000023
S11301A0933B000059040000590400005904000066
S11301B09D3B0000A73B000059040000B13B000038
S11301C059040000590400005904000059040000B7
S11301D059040000590400005904000059040000A7
S11301E05904000059040000590400005904000097
S11301F05904000059040000590400005904000087
S11303F0590400005904000059040000FFFFFFFFE6
S1130400FFFFFFFFFFFFFFFFFFFFFFFFFE7FFFFF79
S113041072B64FF000014FF000024FF000034FF0AE
S113042000044FF000054FF000064FF00007B846F7
S1130430B946BA46BB46BC4604488546044880478C
S11304400448804762B606F07DFBFEE7007000209A
S11304502D12000069120000FFF7FEBF81F0004179
S113046002E000BF83F0004330B54FEA41044FEA95
S1130470430594EA050F08BF90EA020F1FBF54EA30
S1130480000C55EA020C7FEA645C7FEA655C00F0CC
S1130490E2804FEA5454D4EB5555B8BF6D420CDD9D
S11304A02C4480EA020281EA030382EA000083EA20
S11304B0010180EA020281EA0303362D88BF30BDC0
S11304C011F0004F4FEA01314FF4801C4CEA113116
S11304D002D0404261EB410113F0004F4FEA033375
S11304E04CEA133302D0524263EB430394EA050F00
S11304F000F0A780A4F10104D5F1200E0DDB02FA6F
S11305000EFC22FA05F2801841F1000103FA0EF202
S1130510801843FA05F359410EE0A5F120050EF1C8
S1130520200E012A03FA0EFC28BF4CF0020C43FAF9
S113053005F3C01851EBE37101F0004507D54FF006
S1130540000EDCF1000C7EEB00006EEB0101B1F556
S1130550801F1BD3B1F5001F0CD349085FEA30009C
S11305604FEA3C0C04F101044FEA445212F5800FA7
S113057080F09A80BCF1004F08BF5FEA500C50F144
S1130580000041EB045141EA050130BD5FEA4C0C27
S1130590404141EB010111F4801FA4F10104E9D1B0
S11305A091F0000F04BF01460020B1FA81F308BFA7
S11305B02033A3F10B03B3F120020CDA0C3208DD73
S11305C002F1140CC2F10C0201FA0CF021FA02F14E
S11305D00CE002F11402D8BFC2F1200C01FA02F1BE
S11305E020FA0CFCDCBF41EA0C019040E41AA2BFE3
S11305F001EB0451294330BD6FEA04041F3C1CDAAB
S11306000C340EDC04F11404C4F1200220FA04F0CA
S113061001FA02F340EA030021FA04F345EA030174
S113062030BDC4F10C04C4F1200220FA02F001FA36
S113063004F340EA0300294630BD21FA04F02946B8
S113064030BD94F0000F83F4801306BF81F4801151
S11306500134013D4EE77FEA645C18BF7FEA655CC4
S113066029D094EA050F08BF90EA020F05D054EA96
S1130670000C04BF1946104630BD91EA030F1EBF9B
S11306800021002030BD5FEA545C05D1400049419F
S113069028BF41F0004130BD14F580043CBF01F592
S11306A0801130BD01F0004545F0FE4141F4700178
S11306B04FF0000030BD7FEA645C1ABF1946104653
S11306C07FEA655C1CBF0B46024650EA013406BF54
S11306D052EA033591EA030F41F4002130BD00BF13
S11306E090F0000F04BF0021704730B54FF48064D0
S11306F004F132044FF000054FF0000150E700BF51
S113070090F0000F04BF0021704730B54FF48064AF
S113071004F1320410F0004548BF40424FF000019C
S11307203EE700BF42004FEAE2014FEA31014FEADF
S113073002701FBF12F07F4393F07F4F81F060512E
S1130740704732F07F4208BF704793F07F4F04BF79
S113075041F40021704730B54FF4607401F0004556
S113076021F000411CE700BF50EA010208BF7047B6
S113077030B54FF000050AE050EA010208BF7047A7
S113078030B511F0004502D5404261EB41014FF410
S1130790806404F132045FEA915C3FF4D8AE4FF018
S11307A003025FEADC0C18BF03325FEADC0C18BFFB
S11307B0033202EBDC02C2F1200300FA03FC20FA4C
S11307C002F001FA03FE40EA0E0021FA02F1144499
S11307D0BDE600BF70B54FF0FF0C4CF4E06C1CEAB2
S11307E011541DBF1CEA135594EA0C0F95EA0C0F23
S11307F000F0DEF82C4481EA030621EA4C5123EA96
S11308004C5350EA013518BF52EA033541F48011C4
S113081043F4801338D0A0FB02CE4FF00005E1FB77
S113082002E506F00042E0FB03E54FF00006E1FBC1
S113083003569CF0000F18BF4EF0010EA4F1FF0404
S1130840B6F5007F64F5407404D25FEA4E0E6D4144
S113085046EB060642EAC62141EA55514FEAC52055
S113086040EA5E504FEACE2EB4F1FD0C88BFBCF5D1
S1130870E06F1ED8BEF1004F08BF5FEA500E50F182
S1130880000041EB045170BD06F0004646EA010148
S113089040EA020081EA0301B4EB5C04C2BFD4EB7A
S11308A00C0541EA045170BD41F480114FF0000E73
S11308B0013C00F3AB8014F1360FDEBF002001F0E1
S11308C0004170BDC4F10004203C35DA0C341BDC5B
S11308D004F11404C4F1200500FA05F320FA04F02D
S11308E001FA05F240EA020001F0004221F0004161
S11308F010EBD37021FA04F642EB06015EEA430ED4
S113090008BF20EAD37070BDC4F10C04C4F1200503
S113091000FA04F320FA05F001FA04F240EA0200B6
S113092001F0004110EBD37041F100015EEA430E87
S113093008BF20EAD37070BDC4F1200500FA05F2A7
S11309404EEA020E20FA04F301FA05F243EA020326
S113095021FA04F001F0004121FA04F220EA020035
S113096000EBD3705EEA430E08BF20EAD37070BD7B
S113097094F0000F0FD101F00046400041EB01015B
S113098011F4801F08BF013CF7D041EA060195F03D
S1130990000F18BF704703F00046520043EB0303F7
S11309A013F4801F08BF013DF7D043EA06037047E4
S11309B094EA0C0F0CEA135518BF95EA0C0F0CD0EF
S11309C050EA410618BF52EA4306D1D181EA030135
S11309D001F000414FF0000070BD50EA410606BF2F
S11309E01046194652EA430619D094EA0C0F02D174
S11309F050EA013613D195EA0C0F05D152EA0336B9
S1130A001CBF104619460AD181EA030101F00041D6
S1130A1041F0FE4141F470014FF0000070BD41F01F
S1130A20FE4141F4780170BD70B54FF0FF0C4CF4F9
S1130A30E06C1CEA11541DBF1CEA135594EA0C0F18
S1130A4095EA0C0F00F0A7F8A4EB050481EA030E65
S1130A5052EA03354FEA013100F088804FEA03334C
S1130A604FF0805545EA131343EA12634FEA02221A
S1130A7045EA111545EA10654FEA00260EF00041DB
S1130A809D4208BF964244F1FD0404F5407402D22D
S1130A905B084FEA3202B61A65EB03055B084FEABE
S1130AA032024FF480104FF4002CB6EB020E75EBBB
S1130AB0030E22BFB61A754640EA0C005B084FEAE3
S1130AC03202B6EB020E75EB030E22BFB61A754660
S1130AD040EA5C005B084FEA3202B6EB020E75EBAB
S1130AE0030E22BFB61A754640EA9C005B084FEA23
S1130AF03202B6EB020E75EB030E22BFB61A754630
S1130B0040EADC0055EA060E18D04FEA051545EA1E
S1130B1016754FEA06164FEAC30343EA52734FEAC7
S1130B20C2025FEA1C1CC0D111F4801F0BD141EA40
S1130B3000014FF000004FF0004CB6E711F4801FA5
S1130B4004BF01430020B4F1FD0C88BFBCF5E06F85
S1130B503FF6AFAEB5EB030C04BFB6EB020C5FEA95
S1130B60500C50F1000041EB045170BD0EF0004EEA
S1130B704EEA113114EB5C04C2BFD4EB0C0541EA1C
S1130B80045170BD41F480114FF0000E013C90E619
S1130B9045EA060E8DE60CEA135594EA0C0F08BFDD
S1130BA095EA0C0F3FF43BAF94EA0C0F0AD150EADC
S1130BB001347FF434AF95EA0C0F7FF425AF10466F
S1130BC019462CE795EA0C0F06D152EA03353FF497
S1130BD0FDAE1046194622E750EA410618BF52EA14
S1130BE043067FF4C5AE50EA41047FF40DAF52EAE8
S1130BF043057FF4EBAE12E74FF0FF3C06E000BF85
S1130C004FF0010C02E000BF4FF0010C4DF804CD91
S1130C104FEA410C7FEA6C5C4FEA430C18BF7FEA51
S1130C206C5C1BD001B050EA410C0CBF52EA430C7F
S1130C3091EA030F02BF90EA020F0020704710F1FF
S1130C40000F91EA030F58BF994208BF90422CBF8E
S1130C50D8176FEAE37040F0010070474FEA410C87
S1130C607FEA6C5C02D150EA013C07D14FEA430CA5
S1130C707FEA6C5CD6D152EA033CD3D05DF8040B16
S1130C80704700BF8446104662468C461946634648
S1130C9000E000BF01B5FFF7B7FF002848BF10F11F
S1130CA0000F01BD4DF808EDFFF7F4FF0CBF012064
S1130CB000205DF808FB00BF4DF808EDFFF7EAFFE0
S1130CC034BF012000205DF808FB00BF4DF808ED9B
S1130CD0FFF7E0FF94BF012000205DF808FB00BF90
S1130CE04DF808EDFFF7CEFF94BF012000205DF81A
S1130CF008FB00BF4DF808EDFFF7C4FF34BF012027
S1130D0000205DF808FB00BF4A0011D212F5001262
S1130D1011D20DD56FF47873B3EB62520ED44FEA4F
S1130D20C12343F0004343EA505323FA02F07047CF
S1130D304FF00000704750EA013002D14FF0FF300D
S1130D4070474FF00000704753B94AB9002908BFF3
S1130D5000281CBF4FF0FF314FF0FF3000F07EB988
S1130D60ADF1080C6DE904CE00F006F8DDF804E0FE
S1130D70DDE9022304B070472DE9F047089D0446DD
S1130D808E46002B4ED18A4294466DD9B2FA82F730
S1130D9057B1C7F1200EB94020FA0EFE02FA07FC43
S1130DA04EEA010E00FA07F44FEA1C49210CBEFB7F
S1130DB0F9F61FFA8CF809FB16EE41EA0E4106FB20
S1130DC008F38B420AD91CEB010106F1FF3280F0D3
S1130DD027818B4240F22481023E6144C91AA4B2A5
S1130DE0B1FBF9F009FB101144EA014400FB08F8D7
S1130DF0A0450AD91CEB040400F1FF3380F00E81F6
S1130E00A04540F20B810238644440EA0640A4EB5A
S1130E10080400267DB1FC4000232C606B60314641
S1130E20BDE8F0878B4209D9002D00F0148100261B
S1130E3085E8030030463146BDE8F087B3FA83F60F
S1130E40002E40F090808B4202D3824200F2FD805B
S1130E50841A61EB030101208E46002DEBD085E856
S1130E6010403146BDE8F0871AB94FF0010CBCFBC5
S1130E70F2FCBCFA8CF7A7BBA1EB0C034FEA1C42B3
S1130E801FFA8CF80126B3FBF2FE210C02FB1E3381
S1130E9041EA034108FB0EF38B4208D91CEB010124
S1130EA00EF1FF3002D28B4200F2D1808646C91A7D
S1130EB0A3B2B1FBF2F002FB101143EA014408FBB8
S1130EC000F8A04508D91CEB040400F1FF3302D25A
S1130ED0A04500F2B7801846A4EB080440EA0E408F
S1130EE098E7C7F1200301FA07F40CFA07FC20FA8B
S1130EF003FED9404FEA1C424EEA040EB1FBF2F65F
S1130F004FEA1E4302FB16111FFA8CF843EA014311
S1130F1006FB08F1994200FA07F40AD91CEB030313
S1130F2006F1FF3080F08C80994240F28980023EC5
S1130F3063445B1A1FFA8EF1B3FBF2F002FB103329
S1130F4041EA034100FB08F38B4208D91CEB010181
S1130F5000F1FF3E70D28B426ED902386144CB1A45
S1130F6040EA06468FE7C6F1200722FA07F8B340A5
S1130F7001FA06F448EA030320FA07FC4FEA134E89
S1130F80F9404CEA040CB1FBFEF94FEA1C440EFB99
S1130F9019111FFA83F844EA014109FB08F48C4251
S1130FA002FA06F200FA06FA08D9591809F1FF30D4
S1130FB044D28C4242D9A9F102091944091B1FFAEF
S1130FC08CFCB1FBFEF00EFB10114CEA014400FB5B
S1130FD008F8A04507D91C1900F1FF312AD2A04511
S1130FE028D902381C4440EA0940A4EB0804A0FBB9
S1130FF002894C45C446494616D313D055B1BAEBC1
S11310000C0364EB010404FA07F7F3401F43F440B4
S11310102F606C6000263146BDE8F0871846F4E680
S11310201646DBE6C245E9D2B8EB020C69EB0301D4
S11310300138E3E70846D6E7704690E78146BDE706
S1131040064676E70238644446E7304605E7AEF1E3
S1131050020E61442BE72E462846ECE6704700BF9B
S1131060034613F8012B002AFBD1181A01387047E4
S113107001F0FF01102A2BDB10F0070F08D010F845
S1131080013B013A8B422DD010F0070F42B3F6D149
S1131090F0B441EA012141EA014122F007047FF062
S11310A000070023F0E80256083C85EA010586EAB9
S11310B0010685FA47F5A3FA87F586FA47F6A5FAF5
S11310C087F68EB9EED1F0BC01F0FF0102F0070201
S11310D032B110F8013B013A83EA010313B1F8D1AC
S11310E00020704701387047002D06BF354603388D
S11310F0073815F0010F07D1013015F4807F02BFC6
S1131100013015F4C03F0130F0BC0138704700BF16
S11311104FEA410C7FEA6C5C02D150EA013C0AD1EF
S11311204FEA430C7FEA6C5C02D152EA033C02D1E1
S11311304FF0000070474FF0010070474FEA410242
S113114012F5001215D211D56FF47873B3EB625215
S113115012D94FEAC12343F0004343EA505311F03C
S1131160004F23FA02F018BF404270474FF00000CE
S1131170704750EA013005D111F0004008BF6FF00C
S1131180004070474FF00000704700BF4FEA410233
S1131190B2F1E04324BFB3F5001CDCF1FE5C0DD9D1
S11311A001F0004C4FEAC0024CEA5070B2F1004F1B
S11311B040EB830008BF20F00100704711F0804F1E
S11311C021D113F13872BCBF01F00040704741F4E3
S11311D080114FEA5252C2F11802C2F1200C10FAE7
S11311E00CF320FA02F018BF40F001004FEAC123CB
S11311F04FEAD32303FA0CFC40EA0C0023FA02F36F
S11312004FEA4303CCE77FEA625307D150EA013344
S11312101EBF4FF0FE4040F44000704701F0004014
S113122040F0FE4040F40000704700BF4FF0E02360
S1131230D3F8882D42F47002C3F8882DD3F8342FE4
S113124022F08042C3F8342F054B064A5A605A688C
S113125042F220121A604FF6FF729A60704700BF84
S11312600020054020C528D9264B274A9A4208D099
S113127013462448254A13F8011B02F8011B98421F
S1131280F9D1234B234A9A4208D013462048224AD4
S113129013F8011B02F8011B8342F9D11F4B204AAA
S11312A09A4206D0134600211C4A03F8011B9342BC
S11312B0FBD11C4B1C4A9A4208D0134619481B4ABE
S11312C013F8011B02F8011B8342F9D1184B194A88
S11312D09A4212D010B4184CA40808D0194600231E
S11312E051F8040B42F8040B0133A342F8D1134B19
S11312F0104A1A605DF8044B7047104B0C4A1A6090
S1131300704700BF78C4000010BD00000084FF1FB8
S113131078C4000078C40000688BFF1F8407002095
S11313200000002078C4000078C400000000002001
S1131330000000000080FF1F0004000008ED00E032
S1131340074B5B69DBB2042B06D0802B06D0012B44
S11313500CBF01200420704702207047032070470F
S113136000E00740044BD3F8003113F0807F1ABF2C
S1131370024B18680020704700400640B403002068
S113138010B584B00B4600293BD0444AD2F8002162
S113139012F0007F7DD1414AD2F8001121F40001FE
S11313A0C2F800114FF08061C2F8001100213C4ADC
S11313B01160002870D05A7A120202F4E062197A9D
S11313C001F007010A433548C0F80421DA79120113
S11313D002F030029979C90001F008010A435979F1
S11313E0890001F004010A43C0F808211A79012A8E
S11313F029D0E2B1022A32D01A68294B1A60294C4A
S11314003BE000238DF804308DF80C3001228DF878
S113141008208DF809208DF805208DF80630022368
S11314208DF8073004AB204A43F8102DADE71A7B42
S1131430002A14BF4FF40002002242F001021749AF
S1131440C1F80021D8E71A7B002A14BF4FF4000228
S1131450002242F001121149C1F80021CCE71A7BA5
S1131460002A14BF4FF403024FF4403242F0010249
S11314700A49C1F80021BFE7013CFFF773FF18B91F
S1131480002CF9D1032005E0002C14BF0020032018
S113149000E0022004B010BD0020FBE7004006403D
S11314A0B403002088E7300000127A00084BD3F818
S11314B0003213F0807F09D0054BD3F8083203F0D3
S11314C00103002B034808BF002070470020704729
S11314D00040064000127A0010B582B00B46002985
S11314E038D02D4AD2F8002212F0007F4FD12A4A78
S11314F0D2F8001221F40001C2F800120021C2F84F
S11315000012002846D09A78120202F4E062597858
S113151001F007010A432049C1F804221A7802F0B5
S11315200102C1F8082259799A791B79002B14BF5A
S113153003230123002914BF042100210B43002AA3
S113154014BF4FF4000200221343134AC2F80032BE
S1131550642410E000238DF8043001228DF8052066
S11315608DF806308DF801208DF8022002AB03F8C7
S1131570082DB6E7013CFFF799FF18B9002CF9D103
S1131580032005E0002C14BF0020032000E002200B
S113159002B010BD0020FBE700400640054BD3F825
S11315A0003313F0807F1DBF024BD3F80833024889
S11315B00020704700400640006CDC0210B582B089
S11315C00B46002932D0294AD2F8002312F0007FBA
S11315D047D1264AD2F8001321F40001C2F80013BF
S11315E04FF08061C2F8001300283DD09A781202AF
S11315F002F4E062597801F007010A431B49C1F87B
S113160004231A7802F00302C1F808239A795B795B
S1131610002B14BF01230923002A14BF4FF4000236
S113162000221343C1F8003314240EE001238DF883
S1131630053000228DF806208DF801308DF8023037
S113164002AB03F8082DBEE7013CFFF7A7FF18B96A
S1131650002CF9D1032005E0002C14BF0020032046
S113166000E0022002B010BD0020FBE7004006406D
S113167008B50F4BD3F8003613F0807F02D1002356
S1131680184608BDFFF76EFE03460028F8D0084947
S1131690D1F80826C2F302220132B0FBF2F3D1F8EA
S11316A00826C2F30442103203FB02F35B08E7E7A7
S11316B00040064010B584B00C4699B13D4BD3F8B8
S11316C0003613F0007F72D13A4BD3F8002622F48F
S11316D00002C3F800264FF08062C3F80026A0B9C8
S11316E0002065E000238DF804308DF80B300122D2
S11316F08DF808208DF809208DF8053007228DF823
S113170006208DF8073001ACD8E7FFF72BFE63798C
S11317101B0203F4E063227902F007021343254914
S1131720C1F8043663781B0203F4E063A278120460
S113173002F4F8121343C1F808362378012B16D0AB
S11317404BB1022B1FD04FF47A74FFF791FF48BBC3
S113175034B3013CF9E7E379002B14BF4FF40003E1
S1131760002343F00103134AC2F80036EBE7E379A0
S1131770002B14BF4FF40003002343F001130D4A60
S1131780C2F80036DFE7E379002B14BF4FF40303FC
S11317904FF4403343F00103064AC2F80036D2E75F
S11317A0032005E0002C14BF0020032000E00220E9
S11317B004B010BD004006402DE9F04180460D46BE
S11317C08C7801344E7806FB04460F7807FB0447F7
S11317D0CB78013B052B1CD8DFE803F00312151B63
S11317E01B18FFF7BFFD0009B8F1020F4AD0B8F18A
S11317F0030F7BD0B8F1010F0DD00020BDE8F081BC
S1131800FFF754FEEFE7FFF7C9FEECE7FFF730FF01
S1131810E9E70020E7E7EA7802EB42015B4B53F883
S113182021301B0904FB03F4A04200F293800B4611
S1131830564901EB83035B681B0906FB03F6B042C0
S113184000F28B8002EB420301EB83039B681B09CC
S113185007FB03F7B84200F28380AB781B0403F460
S11318607023120602F0706213432A7802F00F020A
S113187013436A781201D2B21343454A53610020DC
S1131880BDE8F081EA7802EB4201424B53F8213083
S11318901B0904FB03F4A04265D80B463D4901EB48
S11318A083035B681B0906FB03F6B0425ED802EBB8
S11318B0420301EB83039B681B0907FB03F7B84250
S11318C057D8AB781B0403F47023120602F070623D
S11318D013432A7802F00F0213436A781201D2B23A
S11318E013432B4A93610020BDE8F081EB7803EBAE
S11318F04301294A52F82120120904FB02F4A042B0
S11319003AD80A46244901EB82025268120906FBBE
S113191002F6B04233D803EB430201EB8202926831
S1131920120907FB02F7B8422CD8AA78120402F471
S113193070221B0603F0706313432A7802F00F022F
S113194013436A781201D2B21343114AD3610020BF
S1131950BDE8F0810120BDE8F0810120BDE8F081FF
S11319600120BDE8F0810120BDE8F0810120BDE83F
S1131970F0810120BDE8F0810120BDE8F081012063
S1131980BDE8F0810120BDE8F08100BF20B800006F
S11319900040064074B80000CCB7000038B50546D6
S11319A0FFF7CEFC2946FFF707FF044658B9E8784D
S11319B00A220849013A0B69C3F30363984204D02D
S11319C0002AF7D10324204638BD002A08BF032487
S11319D0F9E700BF0040064010B504461B4B1B69E5
S11319E0C3F30363013B052B1DD8DFE803F00313A6
S11319F0161C1C19FFF7B6FC144B1B69C3F30343F5
S1131A000133B0FBF3F0012C0FD0ECB1022C14D055
S1131A10002010BDFFF74AFDEEE7FFF7BFFDEBE73F
S1131A20FFF726FEE8E70020E6E7084B1B69C3F34F
S1131A3003130133B0FBF3F010BD044B1B6903F037
S1131A400F030133B0FBF3F010BD00BF00400640AC
S1131A5008B50F4B1B6AC3F30363062B15D8DFE8E5
S1131A6003F004080B0E141411000220FFF7B4FF56
S1131A7008BDFFF777FC08BDFFF718FD08BDFFF7A9
S1131A808DFD08BDFFF7F4FD08BD002008BD00BFB3
S1131A900040064008B541B1012931D0002002467A
S1131AA010B1431E22FA03F008BD0438032852D8AB
S1131AB0DFE800F00B02141DFFF770FD0246294B0E
S1131AC0D3F8040300F00700EAE7FFF7EFFC02464F
S1131AD0244BD3F8040200F00700E1E7FFF742FCCF
S1131AE00246204BD3F8040100F00700D8E7FFF7C3
S1131AF0BFFD02461B4BD3F8040600F00700CFE7F6
S1131B00043803282AD8DFE800F00B02141DFFF77D
S1131B1045FD0246134BD3F80403C0F30220BFE78C
S1131B20FFF7C4FC02460F4BD3F80402C0F30220B3
S1131B30B6E7FFF717FC02460A4BD3F80401C0F3DB
S1131B400220ADE7FFF794FD0246064BD3F80406E6
S1131B50C0F30220A4E700200246A1E700200246C9
S1131B609EE700BF0040064008B5114B1B69C3F354
S1131B700113032B19D8DFE803F002071013002127
S1131B800620FFF787FF08BD094B186900F0020023
S1131B90002818BF4FF4FA4008BD064B186808BD6A
S1131BA000210520FFF776FF08BD002008BD00BF17
S1131BB000800440A403002038B51C4B33F81030D7
S1131BC09B0003F1804303F5CA231D68C5F3C005D8
S1131BD01C6804F00704AC4225D31868C0F3807075
S1131BE010B31B68C3F30263013B052B19D8DFE86C
S1131BF003F0030C101818140620FFF74BFF0134F0
S1131C00B0FBF4F005FB000038BD0420FFF742FFF1
S1131C10F5E70520FFF73EFFF1E70720FFF73AFF5E
S1131C20EDE70020EBE7002038BD00BF2CB7000033
S1131C300F4B1B69C3F38103022B07D0032B0ED078
S1131C40002B0CBF4FF4FA3000207047084B186982
S1131C5000F00200002818BF4FF4FA407047044B0C
S1131C60186900F00200002818BF4FF4FA407047CA
S1131C700080044008B5244B5B6813F4006F40D027
S1131C80214B5B68C3F303130E2B09D8DFE803F081
S1131C900A080D081208171C20252F0829082C00F3
S1131CA0002026E0FFF7D4FE23E001210620FFF701
S1131CB0F1FE1EE001210420FFF7ECFE19E00121F2
S1131CC00520FFF7E7FE14E00020FFF785FE10E093
S1131CD001210720FFF7DEFE0BE00120FFF77CFE69
S1131CE007E0FFF7A5FF04E0FFF73EFF01E04FF434
S1131CF0FA30054B5B68C3F302230133B0FBF3F006
S1131D0008BD002008BD00BF00800440F0B5A1B0AC
S1131D1028B304460646002800F0FF80644B1B6984
S1131D20C3F30363032B00F0C980FFF737FC0028DB
S1131D3000F0B48003238DF8073000228DF80620CC
S1131D4001228DF8052020A800F87C3DFFF726FE2F
S1131D500546002800F0B280284621B0F0BD0123DA
S1131D608DF80B3000228DF80C208DF80D308DF895
S1131D700E208DF808308DF809308DF80A308DF872
S1131D8016308DF814308DF815208DF80F208DF84D
S1131D9010308DF811308DF838300D928DF82530D3
S1131DA0444906918DF81C208DF824208DF81D30AF
S1131DB08DF81E2002208DF81F008DF820308DF83C
S1131DC021308DF830308DF828208DF82F208DF8B3
S1131DD029200C218DF82A108DF82B208DF82C3019
S1131DE08DF82D308DF83D3003218DF83C108DF8A1
S1131DF04B308DF841108DF840208DF83F308DF830
S1131E003E308DF845008DF844308DF843208DF830
S1131E10421006208DF849008DF848208DF847308F
S1131E208DF8461024491E9120211D918DF84C30C7
S1131E308DF84D208DF84E208DF84F208DF85030C0
S1131E408DF854308DF853308DF852208DF8512090
S1131E508DF868308DF869308DF86A308DF86B3004
S1131E608DF86C308DF86D308DF873308DF85830F6
S1131E701792189219928DF86E308DF86F308DF894
S1131E8070208DF871208DF872208DF87C308DF8DB
S1131E907D308DF87E2002AE34463FE700210120DC
S1131EA0FFF78CFB054600287FF456AF42E700BFDE
S1131EB00040064000127A00EC86FF1F3146E078AD
S1131EC0FFF70AFB0546002800F02381FFF738FAE4
S1131ED0022800F05881032800F05881012800F0FE
S1131EE03281002D7FF438AF94F8303013B1E26AB8
S1131EF0A84B1A6094F8353053B1A7490A6A22F006
S1131F00706294F834301B0603F0706313430B6261
S1131F1094F84330002B40F0A68114F16C0F35D0B7
S1131F20236F002B32D0E36E83B300219B489C4D7A
S1131F3001EB8102236F9B5C30F813309B0003F1AB
S1131F40804303F5CA231E6826F080461E60236F73
S1131F509F189E5CBB781B0603F0E063FA78D200FE
S1131F6002F0080213433A7902F0070213437A7825
S1131F70002A14BF4FF080420022134330F8162089
S1131F8045F822300131E36E9942D1D394F84430BC
S1131F90C3B194F8463094F847208249496821F443
S1131FA07F6194F84500002814BF4FF400600020BE
S1131FB01B01DBB2120202F4E06213430B4303433E
S1131FC0784A536094F84830DBB194F84A3094F876
S1131FD049207449096921F03F0194F84C000843F1
S1131FE094F84B10002914BF022100219B0003F038
S1131FF00C030343120102F0300213430B43694AFA
S1132000136194F86030002B37D0664B196C21F0C3
S1132010010194F861200A431A641B6C23F0020343
S113202094F86220002A14BF0222002213435D4A5E
S11320301364136C23F0040394F86320002A14BF80
S1132040042200221343574A1364136C23F0080339
S113205094F86420002A14BF082200221343514A32
S11320601364136C23F0100394F86520002A14BF42
S11320701022002213434B4A136494F8503033B1B6
S1132080494B626D1A60A26D5A60E26D9A6094F8D1
S11320906630EBB1434A936E00209066516821F498
S11320A0805194F868301B0303F480530B4353604E
S11320B0906694F867305BB194F869305B0003F084
S11320C00E0394F86A2042F080521343354A936613
S11320D094F87430002B00F0E28034498B7803F0DC
S11320E07F0394F8752082F0010243EAC213DBB245
S11320F08B7094F97630002BBCBF20335BB22B4934
S11321000A7903F01F0302F0E00213430B71002568
S113211022E604F11001607FFFF732F9054600283A
S11321207FF4D4AE04F1200194F82800FFF7C2FA3A
S11321300546FFF705F9022825D0032826D00128F3
S113214001D0002601E004F13606002D7FF4C9AE6B
S1132150F378032B2CD08DF80730B3788DF8063044
S113216073788DF80530337820A800F87C3DFFF7AC
S113217015FC054600287FF4B4AEE11DA07BFFF7F3
S11321801DFA0546ADE604F13A06DEE704F13E0623
S1132190DBE700BFA4030020004006402CB700008A
S11321A00050064000800440A803002000D00740EF
S11321B094F828300BBB637F93BBE378002B42D1A8
S11321C00125002D7FF48DAEE11DA07BFFF7F6F90C
S11321D0054600287FF485AEF3788DF80730B37890
S11321E08DF8063073788DF80530337820A800F820
S11321F07C3DFFF7D3FB054673E606238DF80730D5
S113220002238DF8063001238DF8053020A800F84C
S11322107C3DFFF7C3FB0546637F7BB10128D0D12A
S113222001238DF8073000228DF806208DF8053043
S113223020A800F87C3DFFF7B1FB0546E378002BAE
S1132240BFD0012DBDD102238DF8073000238DF8B6
S113225006308DF8053020A8012300F87C3DFFF7F7
S11322609DFB0546ADE704F136010120FFF7A4FA12
S1132270054600287FF470AD04F13A010220FFF70F
S11322809BFA054600287FF467AD04F13E01032064
S1132290FFF792FA054600287FF45EAD3DE600257F
S11322A05AE500BF70B504460D46112807D9232806
S11322B040F285804D2840F24F81042070BD1128E2
S11322C07AD8DFE800F00913191F24292E33383C8B
S11322D041484F565D646B720020FFF77DFB034657
S11322E00020002D00F0AA812B6070BD0120FFF7B3
S11322F073FB03460020F4E70220FFF76DFB03465F
S11323000020EEE7FFF7B6FC03460020E9E7FFF7FD
S1132310CDF803460020E4E7FFF740F90346002028
S1132320DFE7FFF71FF803460020DAE7FFF7A0F91D
S113233003460020D5E7A84B1B680020D1E7FFF730
S113234087FB03460020CCE700210420FFF7A2FB13
S113235003460020C5E701210420FFF79BFB034649
S11323600020BEE700210520FFF794FB0346002070
S1132370B7E701210520FFF78DFB03460020B0E7F6
S113238000210620FFF786FB03460020A9E7012170
S11323900620FFF77FFB03460020A2E70021072069
S11323A0FFF778FB034600209BE701210720FFF796
S11323B071FB0346002094E70023042091E7A0F179
S11323C015040E2C00F29980DFE804F00814202B89
S11323D0353E434F5A656D767F878F007F4BDB68B0
S11323E0C3F30163022B00F28B807D4A52F8233041
S11323F0002024E0794BDB68C3F38163022B00F2F5
S11324008280774A52F82330002018E0734BDB684F
S1132410C3F30173022B79D8714A52F82330002098
S11324200DE06E4BDB689B0F022B72D86C4A52F89E
S11324302330002003E0FFF71DFC03460020002D9D
S113244000F0FC802B6070BDFFF78EFB034600207C
S1132450F5E7644B9B78DB0902D000231846EEE7CE
S1132460FFF7E6FB03460020E9E75E4B9B78DB09B8
S113247052D15A4B1B6913F0010350D10020DEE7FF
S1132480584B9B78DB094ED1544B1B6913F0020364
S11324904CD10020D3E7534B9B78DB094AD14FF44E
S11324A0FA330020CBE74D4B1B6CC3F30013002B16
S11324B043D14FF48070C2E7484B1B6CC3F3C00395
S11324C0002B3DD14FF48070B9E7444B1B6CC3F330
S11324D08003C3BB4FF48070B1E7404B1B6CC3F364
S11324E040039BBB4FF48070A9E73C4B1B6C13F07B
S11324F001032ED14FF48070A1E7002304209EE74E
S1132500002318469BE70023184698E70023184643
S113251095E70023184692E7002318468FE74FF407
S11325207A7300208BE70023184688E74FF4FA43B8
S1132530002084E70023184681E7002318467EE73D
S1132540002318467BE70023184678E70023184643
S113255075E70023184672E7242805D804200023D1
S1132560002D6BD02B6070BDA0F13303DBB21A2BAE
S113257007D81D4A22FA03F313F0010F18BF0420F1
S1132580EDD11A4B33F81420194B53F8223013F0C1
S1132590804F42D14FF48070E1E70120FFF71CFA2D
S11325A0002845D100234FF48070D9E70020FFF7BD
S11325B013FA0028F6D03BE00220FFF70DFA0028BA
S11325C0F0D035E016F0080F14D116F0100F19D121
S11325D000234FF48070C3E7A4030020008004406C
S11325E0A803002000D00740412100042CB70000BC
S11325F00050064000212046FFF7DEFA034616F09D
S1132600100F04D001212046FFF7D6FA0346002B11
S113261014BF00204FF48070A2E7094B1E5D16F032
S1132620200FBAD116F0400FC0D116F0800FC3D1DD
S113263016F0180FC6D10023184691E770BD00BFED
S1132640C8B8000008B5FFF72DFE08BD10B4064B4E
S11326501B6853F82040616053F820309A600020D2
S11326605DF8044B704700BFB803002008B5084B61
S11326701B6853F8203000F00F00064A1077D0771B
S113268023B15A6812B1197B9868904708BD00BFFE
S1132690B80300200080004038B5054600F00F0460
S11326A000222146094800F01BF9094B1B6853F826
S11326B0253053B1054A1477D477947701221A73DD
S11326C05A6812B1197B9868904738BD0080004061
S11326D0B80300202DE9F04F87B09DF84070119D9C
S11326E00124BC405FFA84FCB5FBFCF60CFB1656D7
S11326F0002E14BF4FF0010A4FF0000A03D05046D9
S113270007B0BDE8F08F059304920391804600F072
S11327100F06DFF800913146484600F0E6F8D9F894
S1132720003023F08003C9F80030730103F18042C4
S113273002F5004B02F51042049810604B4441F23C
S11327401002059898500197009700231A463146C5
S1132750484600F0EFF8039B032B12D8DFE803F0A0
S1132760022D3D4C002241F204032BF8032064B2F5
S1132770A4B2730103F1804303F5004341F2140250
S11327809C52244C2A463146204600F0EBF80122A4
S11327903146204600F014F904EB461641F21C02BF
S11327A0B35A1BB243F002039BB2B3521A4B1B68D9
S11327B053F8283000221A73A1E764B2A4B241F29C
S11327C004032BF80340730103F1804303F5004332
S11327D0002141F214029952D3E764B2A4B241F247
S11327E004032BF80340730103F1804303F5004312
S11327F041F214029C52C4E7002241F204032BF874
S11328000320730103F1804303F5004341F21401F3
S11328105A52B6E700800040B803002070B582B079
S11328200446079D01959DF818500095FFF752FF47
S1132830054610B1284602B070BD04F00F040F4ED7
S1132840089A2146304600F0BBF806EB441641F2E4
S11328501C03F35A23F008031B041B0C9DF82420CB
S1132860002A14BF082200221343640104F18044A7
S113287004F5004441F21C02A352DBE7008000404F
S113288008B5012200F00F01024800F029F80020E9
S113289008BD00BF0080004008B5002200F00F0111
S11328A0024800F01DF8002008BD00BF0080004071
S11328B000F00F0080304001014B1950704700BFF9
S11328C00080004008B50A4600F00F01014800F0FE
S11328D077F808BD00800040004870470080004041
S11328E00AB981767047C176704700EB4111002325
S11328F041F208028B5001F58052136041F2040248
S11329008B5241F206028B5241F20C028B5041F27F
S113291010028B5041F214028B5241F216028B5278
S113292041F218028B5041F21C028B5241F21E02FA
S11329308B52704710B4DB00DCB29DF8083003F012
S11329400703234343EAC2239DF80420120202F43E
S1132950E06213439BB2803100EB4111CB805DF800
S1132960044B7047036813F0800F13D010B400EBCE
S1132970411341F208041B59002B11DB00EB4113F6
S11329801B5913F0804F0BD122F0404200EB411051
S1132990025112E000EB411041F20803C2507047AB
S11329A000EB411041F20801435823F47F7323F0F4
S11329B00303C2F309021A4342505DF8044B704703
S11329C010B400EB411441F21E03E35A13F4004F18
S11329D014D100EB411141F21E000B5AC2F30E0256
S11329E003F4004313430B5241F216000B5A03F451
S11329F000431A430A525DF8044B704741F21E002B
S1132A00235AC2F3080203F47E431343235241F2D0
S1132A101600235A03F47E431A432252EBE708B507
S1132A200020FFF723FE08BD08B50120FFF71EFEB6
S1132A3008BD08B50220FFF719FE08BD08B503203C
S1132A40FFF714FE08BD08B50420FFF70FFE08BD0C
S1132A5008B50520FFF70AFE08BD08B50620FFF7F4
S1132A6005FE08BD08B50720FFF700FE08BD08B540
S1132A700820FFF7FBFD08BD08B50920FFF7F6FDA8
S1132A8008BD08B50A20FFF7F1FD08BD08B50B2005
S1132A90FFF7ECFD08BD08B50C20FFF7E7FD08BD06
S1132AA008B50D20FFF7E2FD08BD08B50E20FFF7BD
S1132AB0DDFD08BD08B50F20FFF7D8FD08BD38B50A
S1132AC00020FFF709FFC56A002404E06D08013403
S1132AD0E4B2102C06D015F0010FF7D02046FFF712
S1132AE0DBFDF3E738BD00002DE9F04186B00C466C
S1132AF016469846234B53F82050234B53F8207026
S1132B00384600F0E5FC844205D34FF44073184680
S1132B1006B0BDE8F08105EBC4056B790BB1022367
S1132B20F5E71F2C04D804F01F02012393403B63F4
S1132B3002236B719DF83430AB71F37AEB717368D7
S1132B40049333788DF80C30337A8DF81430737A1B
S1132B508DF81530B37A8DF81630F37A7BB11C23D7
S1132B6002930C9B0093434602AA2146384600F088
S1132B702BFE03460028CAD000226A71C7E70C2343
S1132B800293EEE7BC03002018B900002DE9F843D6
S1132B900D46174698461B4B53F820401A4B53F8E2
S1132BA02060204600F094FC854204D34FF4407327
S1132BB01846BDE8F883236813F0005F09D0636BFF
S1132BC0C3F303635B0007339D4202D84FF44073A1
S1132BD0EEE706EBC50999F805300BB10223E7E7E8
S1132BE0012289F8052046F8357089F806802946BF
S1132BF0204600F003FD03460028D9D0002289F8BE
S1132C000520D5E718B90000BC03002070B50646BE
S1132C10244B53F8204094F8113113B36379DBB299
S1132C20032B30D0256894F81001FFF735FE2B688C
S1132C3013F4001F02D16A68920C6A60C3F3034361
S1132C4085F84830AB681BBAAB60EB681BBAEB6025
S1132C50D4F80051BDB12346002208213046A847CC
S1132C6011E0114B53F8205000220521284600F0B2
S1132C70C5FC00220621284600F0C0FC00220721E2
S1132C80284600F0BBFC00232360A37933B96379A1
S1132C90DBB2032B1CBF0023637170BD201D02F047
S1132CA0BDFCF4E7BC03002018B9000038B50C469D
S1132CB00A4B53F820500022094B53F8200000F02F
S1132CC09DFCE1006C18A37913B90023637138BD2E
S1132CD0081D284402F0A2FCF7E700BFBC03002053
S1132CE018B9000038B50D46094B53F8204020466A
S1132CF000F0AFFC3DB1236843F4803323602046E9
S1132D0000F09AFC38BD236823F480332360F6E78F
S1132D1018B90000F8B50E4615461F46414B53F846
S1132D202040204600F095FC236803F07F039D4279
S1132D3001D81F2D05D9204600F07EFC4FF44070C9
S1132D40F8BD236813F0005F15D15EB9364B03EA72
S1132D50874705F5087544F82570204600F06CFC9B
S1132D600020F8BD012EF8D127F0604705F508755D
S1132D7044F82570F1E7636BDB0D03F01E030733A2
S1132D801F2B28BF1F239D4212D82368C3F301239E
S1132D90022B2BD0032B39D0012B1BD03A46002118
S1132DA0304600F065FB05F5087544F82500D4E7C6
S1132DB03EB91D4B03EA874705F5087544F82570AD
S1132DC0CBE7012EC9D127F0604705F5087544F813
S1132DD02570C2E73A460121304600F049FB40EA3B
S1132DE0104005F5087544F82500B6E73A46022177
S1132DF0304600F03DFB030C43EA1063034343EA0F
S1132E00102305F5087544F82530A6E73A46032152
S1132E10304600F02DFB05F508754FF0FF3344F8FC
S1132E2025309AE718B900000000FC1F2DE9F0478F
S1132E30814688461746A54B53F820402368002B4B
S1132E4005DB204600F005FC204600F06CFB6268C0
S1132E507B7A5B0303F4005322F400521343636050
S1132E60204600F04BFB204600F0F3FB204600F028
S1132E7067FB236823F400633A7A002A40F0108148
S1132E802360226D22F00042002311E1636B23F4DE
S1132E908053002A14BF4FF480520022134363630B
S1132EA0BB79022B03D0236843F4003323607B797E
S1132EB0002B40F0B48097F83430012B00F0B88038
S1132EC097F834301BB9236823F400432360F9795D
S1132ED0204600F043FC3968204600F0E9FD024634
S1132EE0002840F0EF80236813F4006F00F0A980FD
S1132EF0FB6838697E69BD69FA69216D01F000419A
S1132F002165216D9B029BB2400100F4787003435C
S1132F1006F01F0633436E4800EA45552B4312045E
S1132F2002F4F81213430B4323653B6A786ABE6AC2
S1132F30FD6A3A6BD4F804CC66490CEA0101C4F882
S1132F40041CD4F8041C9B0203F4F8434001C0B2EF
S1132F50034306F0070633435F4800EA05552B4355
S1132F60120402F4E02213430B43C4F8043CB9797D
S1132F70204600F0C4FBBB79032B02D0204600F0AE
S1132F805BFB564B13F9090010F1800F01D000F0E0
S1132F902DFE534B13F9090000F028FE514B13F991
S1132FA0090000F023FE504B13F9090010F1800FC3
S1132FB001D000F01BFE4C4B4B4493F9030010F17D
S1132FC0800F01D000F012FE08F1040A54460025D7
S1132FD02E463146204602F034FB024600284FD1EB
S1132FE0A67044F8046C08EBC5035E71013508341F
S1132FF0202DEED197F8343088F8113197F8353018
S113300088F810310023C8F80031C8F80431C8F832
S11330100831C8F80C31354B43F8298052E039792E
S1133020204600F0C1FA024600283FF444AF49E0CC
S1133030236813F0005F2FD0236843F40043236018
S11330403EE7FB6838697D69BE69FA69616821F009
S113305007010904090C6160616803F0070343EA8E
S113306006632D0405F4E0252B43C00400F460102E
S11330700343920502F4400213430B43636076E773
S113308065B10024504602F0E6FA01340AF1080A58
S1133090AC42F7D1012215E0012213E0012211E034
S11330A043F400632360226D22F000424FF000439A
S11330B01343236523683A7AC3F3C0239A423FF447
S11330C0E5AE01221046BDE8F08700BF18B9000044
S11330D00000E07F188308C00000F03F34B900000E
S11330E028B9000024B900002CB90000BC0300205A
S11330F010B586B00D4C54F820005468049414782C
S11331008DF80C40947A8DF81640147A8DF814409A
S1133110527A8DF8152006AA082442F8104D00248E
S1133120009400F051FB06B010BD00BF18B90000B8
S113313070B582B00E460A4C54F820500024019415
S1133140069C0094FFF7D0FC034610B1184602B069
S113315070BD01223146284600F050FA0346F5E7D7
S113316018B9000070B584B00D461E46164C54F8CC
S113317020405068029010788DF80400127A8DF87F
S11331800C2004AA0F2042F8100D204600F0DCFBAE
S1133190034610B1184604B070BD04AA002342F8D7
S11331A0103D33462946204600F0CEFB0346002856
S11331B0F0D104AA042342F8103D334629462046A0
S11331C000F0C2FB0346E5E718B9000008B5002388
S11331D0FFF7DCFC08BD000010B5074B53F8204096
S11331E0064B53F82020D2F808310BB10A21984736
S11331F0204600F04FFA10BD18B90000BC030020AF
S1133200F8B5184B53F82040236813F4804F28D0A6
S11332100546154B53F82060D4F8083B13F4003FDF
S11332200CD0D4F8083B43F40033C4F8083BD6F878
S113323000711FB1334600220521B847D4F8083B7A
S113324013F4803F0DD0D4F8083B43F48033C4F822
S1133250083BD6F8004124B1334600220621284613
S1133260A047F8BD18B90000BC0300202DE9F041C7
S113327094B00546694B53F82040A36A226B13406F
S113328003F00103002663B90136202E00F0B0805C
S1133290A36A226B134006F01F02D34003F001031C
S11332A0F1E7002B00F0A4805D4B53F825702368F0
S11332B013F0005F01D0072E0FD907EBC6035B792B
S11332C0DBB2012B41D007EBC60898F80530DBB21E
S11332D0022B5DD014B0BDE8F081052E10D0062E6F
S11332E026D0072EEFD180232363D7F80081B8F1CD
S11332F0000FE8D03B46002203212846C047E2E7FE
S11333007B79DBB2012BDED13968204600F0CCF9A1
S11333102846FFF77BFC20232363D7F80081B8F10C
S1133320000FD0D03B46002201212846C047CAE7FF
S113333040232363D7F80081B8F1000FC3D03B4684
S1133340002202212846C047BDE73146204600F04E
S1133350AAFB57F836203146204600F059FB0028D6
S1133360B1D1A36831462846FFF7A0FC1F2E04D82C
S113337006F01F02012393402363D7F80081B8F1BC
S1133380000FA0D03B46324600212846C0479AE7AA
S113339031462846FFF78AFC98F8073083B91F2E78
S11333A004D806F01F02012393402363D7F8004199
S11333B0002C8FD03B46324604212846A04789E79B
S11333C03146204600F06FFB01AA3146204600F04A
S11333D01FFBA3689DF8073003F00F03042BE5D10E
S11333E01F2EE3D806F01F02012393402363DDE779
S11333F065B9D4F8083BD4F8082B5B0C43EA1243B4
S113340013F0010F02D00020FFF7FAFEE369002B4E
S11334103FF460AF2846FFF7DFFE5BE718B9000012
S1133420BC030020034B53F82030C3F80011C3F849
S113343004217047BC030020082817D9093806283E
S113344013D8DFE800F00406080A0C0E10000C2064
S113345070471020704714207047182070472020B0
S113346070473020704740207047002070470000AC
S1133470012914D021B1022920D000231846704715
S113348002F0404330B10128F8D1520022F040420A
S11334901343F3E70C4901EAC2421343EEE702F097
S11334A0404330B10128E9D1084901EA02421343FB
S11334B0E4E7054901EAC2421343DFE7012801D9E1
S11334C00023DBE71306D9E70000F83F0000FF3FC5
S11334D00346084A904209D002F58052904207D030
S11334E00020054A934208BF102070472020F8E7C7
S11334F0102070470040024000B00240036813F4FB
S1133500801F0FD0036823F000430360036823F097
S113351080430360036823F080530360036813F05F
S1133520006FFBD170470368002B07DB036843F08F
S113353000430360036813F4801FFBD0704700004E
S113354070B50446036843F000730360236813F006
S1133550007FFBD1236843F4805323602046FFF7A8
S1133560B7FF04F18001860007D00B4601EB86010A
S1133570002543F8045B8B42FBD104F5086230B1AB
S113358013463244002143F8041B9A42FBD14FF006
S1133590FF3323616361A3610022A2622363014BB1
S11335A0236270BD06003B0038B504460D46FFF7A4
S11335B08FFF0146236803F40063002B14BF01202E
S11335C000201AD1236843F000532360626B2B065A
S11335D003F0706322F07062134363634FF0FF33B0
S11335E0A36489B249B100236FF0604503F5087202
S11335F044F8225001338B42F8D138BD036803F0FC
S11336007F038B4207D24FF440707047836A19439B
S11336108162002070471F290CD801F01F0101238B
S113362003FA01F1002AF1D1836A23EA01018162DC
S11336300020704700207047036823F08053036024
S1133640036823F080430360036813F0807FFBD199
S11336507047036843F080430360036843F080537A
S113366003600368002B0EDB0122036813F0807FE4
S1133670FBD03AB9036843F000430360036813F4D2
S1133680801FFBD07047036823F0004303600022CF
S1133690EBE70000026A034B134013B1014B0362D2
S11336A0036A704706003B00F8B507460E4600F172
S11336B0880401F10805D0F88000C0F30340FFF747
S11336C0BBFE86F84800D7F88030336013F4001F3F
S11336D010D0D7F8843073600646002348B19908A7
S11336E054F8212012BA45F821200433B342F6D30A
S11336F0F8BDF8BDD7F884309B0C7360ECE708B5CF
S113370004292AD8DFE801F00B181D030600FFF78F
S1133710A0FF08BD036843F00043036008BD0368CD
S113372023F400030360436823F008034360436801
S113373023F48053436008BD436843F008034360A7
S113374008BD436843F480534360436823F008038F
S11337504360036823F40033036008BD036813F473
S1133760006F07D0D0F8003C23F4403343EA014112
S1133770C0F8001C7047036813F4006F09D0D0F838
S1133780000CC0F301400330012303FA00F0C0B27F
S113379070470820FBE738B504460D46FFF7EBFFFA
S11337A00830C0B24FF40073B3FBF0F3DBB2B5FBE7
S11337B0F3F203FB12538008D20100FB03202030F4
S11337C004EB800038BD00002DE9F8430746894624
S11337D014469846089DFFF7DEFF3B6803F07F031D
S11337E0994500F2A38006463B6813F0005F0FD0B2
S11337F07B6BC3F303635B000733994508D84FF42D
S11338004070BDE8F8837B6B4FF44070BDE8F883EB
S11338103B6813F4006F07D0A37B2BB1D7F8003CAF
S113382043F00043C7F8003CD4F808905FFA89F3EA
S1133830402B9ABF424AD05CFF20074665B3FFF78E
S1133840FBFD39F003030DD0002399088A000832E8
S113385055F8211009BAB1500433A26822F00302CA
S11338609A42F2D806F10801A26893420AD21D4492
S113387083F0030215F801CB01F802C00133A268FA
S11338809A42F5D80546824206D282F00303607B51
S1133890C8540132AA42F8D10023336073602379FB
S11338A0012B2FD0002322796AB9736823F0FF53C8
S11338B023F4E01373607268224B03EA884848EAF1
S11338C00202726000233F0407F470273B4322681E
S11338D00F2A28D01C2A08BF43F4801323F07063F6
S11338E0217BD9B1120602F0706242F00042134308
S11338F0A27B0AB143F08043326813433360002053
S1133900BDE8F883736803F060437360726828F05D
S11339106043134373604FF40013C4E7120602F0CC
S113392070621343E4E70020BDE8F8833B6813F0BA
S1133930005F7FF468AF4FF44070BDE8F88300BFC8
S113394038B900000000FC1FF8B504460E461546C1
S11339501F46FFF720FF236803F07F039E423FD8F2
S1133960236813F0005F46D10023036043602B7982
S1133970012B21D02B797BB9036823F4C0030360A6
S1133980436823F0FF5323F4E013436042681F4B62
S113399003EA8743134343602B680F2B1ED003684D
S11339A023F07063036002682B681B0603F07063E6
S11339B0134303600020F8BD036843F4001303605D
S11339C0036823F480030360436803F060434360A7
S11339D0426827F0604313434360CBE70020F8BDFF
S11339E0236813F0005F03D0636B4FF44070F8BD9D
S11339F04FF44070F8BD636BC3F303635B0007339C
S1133A009E42B1D84FF44070F8BD00BF0000FC1FC7
S1133A10F8B507460E461546FFF7BDFE0446006896
S1133A20C0F30340FFF708FD85F848003B6813F036
S1133A30005F2FD07B6BC3F303635B0007339E42AD
S1133A4028D84FF44070F8BD63686B6030F003060B
S1133A5008BF00230CD0002303F0FC0202F108018C
S1133A60615809BA2A4491600433DBB2B342F3D3F8
S1133A7083420DD2D91D294483F003020832A25C8B
S1133A8001F8012F0133DBB29842F5D10020F8BDD3
S1133A900020F8BD23682B6013F4001FD4D16368A1
S1133AA09B0C6B60D2E708B5FFF775FE036808BD91
S1133AB02DE9F84306460F46FFF75DFE04467D1EDA
S1133AC029463046FFF767FE2044083006F5207388
S1133AD0984203D94FF44070BDE8F883A0463046BD
S1133AE0FFF7F6FC874206D94FF44070BDE8F8832F
S1133AF00020BDE8F883336823F07F0305F07F05D9
S1133B001D433560316811F000511CD1002FEFD0F6
S1133B1000252C4608F108093046FFF73CFE0460F6
S1133B204460B8F1000F06D000F10803484403F8DC
S1133B30014B9842FBD10135EDB22946AF42EBD897
S1133B400020BDE8F8830020BDE8F88308B5002014
S1133B50FFF78CFB08BD08B50020FFF73DFB08BD4F
S1133B6008B50020FFF74CFB08BD08B50020FFF79F
S1133B707DFB08BD08B50020FFF778FB08BD08B53C
S1133B800120FFF773FB08BD08B50120FFF724FBF4
S1133B9008BD08B50120FFF769FB08BD08B5022080
S1133BA0FFF764FB08BD08B50220FFF715FB08BD4D
S1133BB008B50220FFF75AFB08BD000072B110B42B
S1133BC0144600F11003084A52F8233023601030E1
S1133BD0054B43F820105DF8044B70471030024B3E
S1133BE043F82010704700BF0080FF1F420900F017
S1133BF01F00012303FA00F0014B43F82200704731
S1133C0000E100E0054B1B68002B04DD013B034A87
S1133C101360002B00DD704762B6FCE7C803002088
S1133C2072B6024A1368013313607047C803002058
S1133C30002808DB0901C9B200F1604000F56140C9
S1133C4080F800137047C0B2C0F38102012A0DD07E
S1133C5010B40A4C0A4B022A18BF234600F0030092
S1133C600901C9B219545DF8044B7047054B00F0C3
S1133C7003000901C9B21954704700BF20ED00E0E8
S1133C801CED00E018ED00E0022303610023036152
S1133C907047436913F0807F01D0022070470369A5
S1133CA023F00103036100207047436A23F00103FA
S1133CB01943416200207047036943EA422242EA01
S1133CC0012202617047B1F57C5F07D0426901238C
S1133CD003FA01F11143416100207047436943F441
S1133CE07C534361F8E710B4436A083101248C40E3
S1133CF023EA04038A401A43426200205DF8044B1D
S1133D00704710B4446A24F0706483F0010392068F
S1133D1042EAC36343EA01632343436200205DF83C
S1133D20044B7047036C23F0FF03C9B219430164C9
S1133D30002070472DE9F04F83B096460193DFF8D9
S1133D40F8A04FF00009CDF80090CB464FF0FF35B6
S1133D504DE0A1EB03081646E04538BF1D46331B72
S1133D60012B15D9A219C2F34702931C07FB03F3D5
S1133D70BEFBF3F38D4234BFA1EB050CA5EB010CA4
S1133D808B42E6D35C1A644538BF1D461446E6E709
S1133D90A31C07FB03F3BEFBF3F3B21C07FB02F700
S1133DA0BEFBF7F799428CBFCA1A5A1AB9428CBFA4
S1133DB0A1EB070CA7EB010C944528BF26469445BC
S1133DC028BF1F468D4234BF4B1B6B1A8F4234BF32
S1133DD0CA1B7A1A9A4203D8CDF80090B3463D46DE
S1133DE08D420AD009F10109B9F1080F05D05AF83A
S1133DF0047F4FF480760024B4E74FEA9B02036CFF
S1133E0023F07F4343EA02630364036C23F47F03D8
S1133E1043EA02430364036C23F47F4343EA02232B
S1133E2003645946FFF77EFF019B1A46009B13600B
S1133E30284603B0BDE8F08F78B90000CA680B6863
S1133E40013B43EAC2634A7C43EAC2730A7C43EA05
S1133E508273CA7A43EA02638A7A43EAC2534A7A89
S1133E6043EA82530A7A43EA4253CA7943EA025341
S1133E708A7943EAC2434A7943EA82430A7943EAA4
S1133E80024303667047036E23F0407343EA016103
S1133E900166704708B5002000F0DCFA08BD08B5DB
S1133EA0012000F0D7FA08BD08B5022000F0D2FACC
S1133EB008BD00002DE9F04784B07A4C54F8204046
S1133EC0656915F0807F03D0022004B0BDE8F08757
S1133ED0656915F0807F01D00220F6E7724D55F830
S1133EE020607788B3FBF7F507FB1535ADB20DB14C
S1133EF00120EAE71D4617468846814601221146FD
S1133F002046FFF7D9FE012211462046FFF7D4FED2
S1133F1033791BB1236E43F480132366002386F8A0
S1133F2026304FF47C512046FFF7CDFEA36943F4BD
S1133F300063A361002F00F0A080A36943F48053C1
S1133F40A3617583236E23F400232366A36D23F4F6
S1133F504033A365A36D23F0030343F00203A36579
S1133F6096F82430012B54D07388022B6BD0042B89
S1133F706CD0012B0CBF4FF0000A4FF0020AB8F1CD
S1133F80000F66D096F823000121039125FA0AF365
S1133F90029301FA0AF30193CDF800A004F164033B
S1133FA04246FEF73BFC002F6ED096F822004FF0FD
S1133FB00108CDF80C8025FA0AF5029508FA0AF3EF
S1133FC00193CDF800A03B4604F174020021FEF7F2
S1133FD025FC4A46354996F82200FEF737FB96F849
S1133FE02200FEF74DFC4A46314996F82300FEF7BD
S1133FF02DFB96F82300FEF743FC86F80C80E3695A
S113400043F00203E361E36943F00103E361002049
S11340105BE7C6F8108077610023B383F3833583AD
S113402033791BB1338B01339BB233830123337355
S11340301FB1A36943F00203A361A36943F0010321
S1134040A361002041E74FF0010A98E74FF0020A0C
S113405095E796F823000123039325FA0AF20292C6
S113406003FA0AF30193CDF800A004F1640306F106
S113407030020321FEF7D2FB95E700237383236EFE
S113408043F40023236661E74A46094996F823006E
S1134090FEF7DCFA96F82300FEF7F2FB01233373F4
S11340A0B1E700BF8C87FF1FCC0300203D43000015
S11340B0F942000038B51B4B53F820501A4B53F803
S11340C0204000232B7395F82430D3B9E36923F0FF
S11340D00203E361E36923F00103E36100F06EFA94
S11340E0A36923F48063A3610A212046FFF7EBFD53
S11340F06B797BB9AB6A1BB1EA6A00212846984701
S113410038BDA36923F00203A361A36923F001036B
S1134110A361E3E705F1250001F080FA00236B7148
S1134120E8E700BFCC0300208C87FF1F2DE9F04196
S113413086B00C469046404B53F820503F4B53F802
S113414020603046FFF7A5FD00286CD1074623897F
S1134150A3F1080292B240F6F8718A4268D82B8023
S1134160E268AA60A2792A71A27C85F82020E27C08
S113417085F8242000222A736A710733C3F3CF031E
S11341806B80032B4CD0042B04D9013B23F0030395
S113419004336B80237D85F82230637D85F82330DA
S11341A0A369AB62E369EB62627921793046FFF778
S11341B09AFD05ABE26821683046FFF7BBFD736AE0
S11341C043F002037362336943F00103336188B33C
S11341D0B8F1000F01D0C8F800002B880093002329
S11341E08DF804308DF805308DF806308DF80730E1
S11341F0A2798DF808208DF80930A37C8DF80A3057
S113420023798DF80B30059B0393237C8DF81030B4
S1134210637C8DF8113069463046FFF70FFE03E0EA
S113422004236B80B6E70127384606B0BDE8F08169
S11342300127F9E70127F7E7CC0300208C87FF1F4C
S1134240F8B506460D4617461A4B53F820401A4B4C
S113425043F820102046FFF717FD01212046FFF701
S113426024FD0123002211462046FFF74AFD15F1E3
S1134270210F05D06268D2B20123934085F8213022
S1134280002239463046FFF751FF074608B1384649
S1134290F8BD0021296305F1250001F0D2F9074694
S11342A0064B9857FFF7A2FC236943F001032361EF
S11342B0EDE700BF8C87FF1FCC0300209887FF1F0A
S11342C00BB90020704710B5FFF7F4FD10BD0000D6
S11342D010B5084B53F82040FFF7ECFE01221146BD
S11342E02046FFF7E9FC012211462046FFF7E4FCD3
S11342F0002010BD8C87FF1F10B50E4B53F82040D3
S11343000D4B53F8203001290DD022791AB11A6EC1
S113431022F480121A660022228362839A6942F48C
S113432080629A6110BDFFF7D3FF012384F8263021
S113433010BD00BFCC0300208C87FF1F012900D0D3
S1134340704710B5044B53F82040FFF7C1FF012319
S113435084F8263010BD00BFCC03002070B50E4693
S113436015460E4B53F820402046FFF792FC10B13F
S11343700125284670BD2A4631462046FFF7B3FC86
S1134380054608B10125F4E7236943F001032361DD
S113439031462046FFF777FDEBE700BF8C87FF1F10
S11343A070B50546294B53F82060294B53F820403B
S11343B0636913F4006F0BD033694BB1FFF788FFC7
S11343C00B212046FFF77FFC012386F8263070BDC1
S11343D0636913F4805F0CD0736953B12846FFF707
S11343E077FF0C212046FFF76EFC022386F8263067
S11343F070BD636913F0020F02D0738B9BB2CBB90B
S1134400636913F0010F02D0338B9BB2B3B9338BC2
S11344109BB273B9A36923F00103A361A36943F4B5
S11344208063A361738B9BB21BB9636913F4806FC0
S113443008D170BD284600F07BF8E1E7284600F07B
S11344401DF8E4E72846FFF735FEF2E7CC03002029
S11344508C87FF1F02280DD808B5074B53F820306E
S11344605B6A13F0010F02D100F0FAF808BDFFF700
S113447097FF08BD704700BF8C87FF1F2A4B53F876
S113448020302A4A52F82000C26D02F0070293F845
S11344902110891A11F0FF0145D0F0B504244FF022
S11344A0000C1FE0026E22F48012026600221A83BE
S11344B0F0BD12F8015B1A61B3F81CE017FA8EFE26
S11344C09EFBF6F206FB12E6B6B29E8345661A8B95
S11344D0D21B92B21A831A8B92B21AB3013911F019
S11344E0FF011FD01A791AB11A8B92B2012AD9D0BE
S11344F05E889A8B92B2B21A042ADDBF9A8BB21AE2
S113450097B227461A695AB1012ED2D0022E03D08F
S113451052F8045B1A61CFE732F8025B1A61CBE709
S11345206546D3E7F0BD7047CC0300208C87FF1F9E
S1134530F0B4204B53F820101F4B53F82070FE6D3D
S1134540C6F30246002E32D04FF0040C22E064463B
S113455000234869DA0025FA02F202704A6901323E
S11345604A6101339AB29442F3D8CB8B14FA83F2A2
S1134570488892FBF0F300FB13239BB2CB834B8B55
S11345801C1BA4B24C834B8B9BB283B1013E16F02F
S1134590FF060CD07D6F4C88CB8B9BB2E31A042BA7
S11345A0D5DCCB8BE41AA4B2002CD1D1DDE7F0BC6E
S11345B0704700BFCC0300208C87FF1F10B50A4B47
S11345C053F82040A36923F40063A361A36923F48F
S11345D08053A3610B212046FFF775FB0C21204675
S11345E0FFF771FB10BD00BF8C87FF1F38B51A4B56
S11345F053F82040194B53F8205095F82430012BE0
S113460019D0E36923F00203E361E36923F00103B2
S1134610E361FFF7D3FF00232B73012211462046E9
S1134620FFF74AFB012211462046FFF745FB6B7951
S113463053B9002038BDA36923F00103A361A36922
S113464023F00203A361E4E705F1250000F0E6FF8F
S113465000236B71EDE700BF8C87FF1FCC030020A4
S113466070B50646314B53F82050314B53F8204077
S11346706B6913F4006F07D023692BB1FFF7B6FF02
S1134680012384F8263070BD6B6913F4805F08D071
S1134690636933B13046FFF7A9FF022384F826305B
S11346A070BD6B6913F0020F03D0638B9BB2002BB8
S11346B02DD16B6913F0010F02D0238B9BB253BB36
S11346C0238B9BB21BB9AB6923F00103AB61638BF2
S11346D09BB21BB9AB6923F00203AB61638B9BB242
S11346E0A3B9238B9BB28BB9AB6923F40063AB6191
S11346F0AB6923F48053AB61A36A1BB1E26A002166
S113470020469847637953B90023237370BD30461C
S1134710FFF70EFFCDE73046FFF7B0FED0E704F118
S1134720250000F07BFF00236371EDE78C87FF1FFA
S1134730CC03002000B583B0022808D0032810D091
S113474001280CD001A90B20FDF77CFF03E01A20FF
S113475001A9FDF777FF019803B05DF804FB1C2065
S1134760F6E74920F4E700002DE9F04F83B00C464A
S11347708F68CE784D7991F806A0002E75D0BFB21F
S1134780DFF8AC81404600F009F9D8F8003023F492
S1134790C0732278002A14BF4FF48072002213439E
S11347A0C8F80030D8F8003023F0C0036278002A3B
S11347B014BF402200221343C8F80030D8F8002068
S11347C022F08402A378002B14BF042300231A438D
S11347D04346C8F80020D8F8002022F08202760070
S11347E006F002061643C8F80060D8F8042022F048
S11347F07802ED0005F078051543C8F80450D8F8A0
S1134800042022F00402BAF1000F14BF0423002391
S11348101A43C8F80420D8F8041021F003012279BF
S113482002F003020A43C8F80420D8F80820120C46
S113483012041743C8F80870D8F8001021F0B0012A
S1134840627B120102F030020A43C8F80020D8F853
S1134850001021F08801A27BD20002F008020A4372
S1134860C8F8002003B0BDE8F08F91F80CB0014601
S11348702079FFF75FFFBBF1010F01D0BFB27FE7E3
S11348802A4A0023DFF8ACA04FF0000BE0FB07AB93
S113489050465946FCF758FA02460B46CDE9002328
S11348A0002908BFB0F1011F36D30127BA46FDB273
S11348B0A7F12002C7F120030AFA02F92AFA03F346
S11348C049EA03090AFA07F85FEA59014FEA38008E
S11348D042464B46DDE900BC1BEB000B4CEB010CE4
S11348E058466146FCF730FA002908BFB0F1011FB1
S11348F015D30135EDB20137112FD8D14FF6FF771B
S113490035B1013DEDB24FF0000A39E70027F7E772
S11349104FF0010A002533E7DDE90001002550EAE4
S11349200103F3D0013887B2EAE700BF40420F0029
S11349300000044020A1070010B51446FFF714FF3F
S113494034B1044A136823F0810343F00103136074
S113495010BD00BF00000440034B1A6842F08002FF
S11349601A601B68704700BF00000440054B1B68B9
S113497023F0C003002914BF402200221343014A3C
S11349801360704700000440034A136823F0810356
S113499043F001031360704700000440036823F0F0
S11349A08103036000230360436083607047000059
S11349B010B50F4B53F820301C7C0CB1022010BDF5
S11349C00C4C54F8200019609A6001221A740222D7
S11349D0DA85836943F400238361836913F4002F28
S11349E0FBD00122044900F048FC002010BD00BFA8
S11349F0D80300209CB9000017000300F0B585B06F
S1134A001B4B53F82040237C13B1022005B0F0BDAA
S1134A1013460A460646174951F8205022600027DB
S1134A20A760012121740220E08594F82A000391F3
S1134A3002930191009705F11C03FDF7EFFE324646
S1134A400D4994F82A00FDF701FE94F82A00FDF7B9
S1134A5017FFAB6943F40023AB61AB6913F4002F78
S1134A60FBD02B6943F400032B610020CEE700BF89
S1134A70D80300209CB90000454B000038B5144B06
S1134A8053F82040134B53F82050EB8D9BB2022B6C
S1134A9016D000221049204600F0EFFB00220F49F7
S1134AA0204600F0EAFBA36923F40023A361A36971
S1134AB013F4002FFBD100232B74AB7C1BB938BD3E
S1134AC00023EB85EAE705F12C0000F0A7FDF6E7EB
S1134AD09CB90000D803002017000300160003004F
S1134AE038B5154B53F82040144B53F82050236924
S1134AF023F40003236195F82A00FDF7CDFE00227C
S1134B000F49204600F0B9FBA36923F40023A361F5
S1134B10A36913F4002FFBD1AB7C43B9EB8D9BB29B
S1134B20022B04BF0023EB8500232B7438BD05F151
S1134B302C0000F073FDF1E79CB90000D8030020BD
S1134B401600030038B5194B53F82040184B53F89E
S1134B50205001290DD0236A1BB1626A012120462D
S1134B609847A3688BB901221249284600F085FBB7
S1134B7038BD0123E385FFF7B3FF236A002BF7D089
S1134B80626A03212046984738BD216894F82A00B8
S1134B90FDF78EFEA16894F82A00FDF793FE00232A
S1134BA0A36094F82A00FDF76BFE38BDD8030020FB
S1134BB09CB900001600030008B50E4B53F82030D2
S1134BC00D4A52F820001A681B7D43B1012B09D00D
S1134BD01378517843EA012100F026FB08BD1378CD
S1134BE0037708BD1378517843EA012100F011FBE3
S1134BF008BD00BFD80300209CB9000038B5154B90
S1134C0053F82050144B53F82040A36923F4802315
S1134C10A361A36913F4802FFBD10021204600F087
S1134C20ADFBE36900220D49204600F026FBEB7C36
S1134C3043B900236B742B8E9BB2022B04BF002359
S1134C402B8638BD05F12B0000F0E8FC0023EB7443
S1134C50EFE700BFD80300209CB900001500030053
S1134C6038B5164B53F82040154B53F82050A36920
S1134C7023F48023A361A36913F4802FFBD10021C3
S1134C80204600F07BFB236923F400132361E369CE
S1134C9095F82900FDF700FEEB7C43B92B8E9BB2FF
S1134CA0022B04BF00232B8600236B7438BD05F14F
S1134CB02B0000F0B3FC0023EB74EFE79CB9000079
S1134CC0D803002010B582B0134B53F82030134A98
S1134CD052F820005C681B7D73B1012B0FD00DF1DD
S1134CE0060100F0BBFABDF806302370BDF80630AB
S1134CF01B0A637002B010BDC3692370FAE70DF19B
S1134D00060100F0A2FABDF806302370BDF80630A3
S1134D101B0A6370EEE700BFD80300209CB90000B3
S1134D2010B5074B53F8203000249C7493F82830B6
S1134D30012B02D0FFF762FE10BDFFF739FE10BD54
S1134D40D8030020314B53F820303BB11A7C0AB110
S1134D50022070475B7C0BB1022070472DE9F041C3
S1134D6082B00C462A4B53F8205001A9294B185CF9
S1134D70FDF768FC019E4FEA840CB6FBFCFC1FFAAD
S1134D808CFC4FEA8C07B6FBF7F7BC4206D23F1BFC
S1134D9004EB840105224FF0040805E0E71BF7E764
S1134DA021440132212A12D09646B6FBF1F083B297
S1134DB002FB03F3B6FBF3F39C4234BF1B1BE31A61
S1134DC0BB42EDD81FFA80FC1F469046E8E7B8F1D5
S1134DD0070F03D82B6943F400332B612A6922F0AF
S1134DE0F85208F1FF331B0603F0F85313432B6109
S1134DF02B6923F4FF5323F01F03CCF30C0C4CEA70
S1134E0003032B61002002B0BDE8F081D803002029
S1134E109CB90000A8B90000F0B583B006460C4662
S1134E201546304B53F8207001A92F4B185CFDF741
S1134E3009FC631E04F13301002203F8012F8B42A5
S1134E40FBD12A4B43F82640EB7984F82830AB7920
S1134E5023752B7A84F829306B7A84F82A30384603
S1134E6000F09EF929683046FFF76CFF2B7983B375
S1134E700122A979384600F0A5F92979384600F0CD
S1134E80B9F93B696A7923F4005343EA42333B613D
S1134E900025E5852586294604F12B0000F0D1FB89
S1134EA00746294604F12C0000F0CBFB012F16D055
S1134EB001280CD00E4B9C572A460E4B53F8261053
S1134EC02046FEF77BFE2046FEF790FE284603B000
S1134ED0F0BD0022A979384600F074F9CDE73846D0
S1134EE0F5E700BF9CB90000A8B90000D803002072
S1134EF0ACB900009C87FF1FF8B506469B4B53F8DE
S1134F0020409B4B53F820509A49204600F012FA57
S1134F1080B340F201632B8695F82830012B25D00D
S1134F203046FFF79DFEAB691BB1EA6903212846B1
S1134F309847636923F0C02323F4F81343F47023E0
S1134F4063618D49204600F0D0F900287BD18B495C
S1134F50204600F0CAF9002840F0A980884920467C
S1134F6000F0C3F9002840F0DE80F8BD3046FFF7BA
S1134F7045FED8E78349204600F0DCF9E0B140F271
S1134F8003632B8695F82830012B11D03046FFF7A8
S1134F9067FEAB691BB1EA69032128469847636938
S1134FA023F0C02323F4F81343F470236361C8E7A8
S1134FB03046FFF723FEECE77349204600F0BAF9C8
S1134FC0E0B140F204632B8695F82830012B11D010
S1134FD03046FFF745FEAB691BB1EA690321284659
S1134FE09847636923F0C02323F4F81343F4702330
S1134FF06361A6E73046FFF701FEECE7634920460C
S113500000F098F9E0B140F205632B8695F828305A
S1135010012B11D03046FFF723FEAB691BB1EA69BF
S1135020032128469847636923F0C02323F4F81327
S113503043F47023636184E73046FFF7DFFDECE758
S1135040534B63617DE75349204600F073F9002810
S11350503FF47DAF464B53F826503046FFF732FEFF
S11350602B7DEBB96B6801336B60EB68013BEB6044
S1135070EB682BB9AB691BB1EA6900212846984754
S1135080EB68002B7FF463AF3046FFF7B7FDAB69E5
S1135090002B3FF45CAFEA6902212846984756E7A3
S11350A06B6802336B60EB68023BEB60E0E73A4904
S11350B0204600F03FF900283FF450AF2C4B53F842
S11350C02650AB68002B3FF449AF284B53F82670A9
S11350D03046FFF771FD2B7DF3B92B6801332B604C
S11350E0AB68013BAB60AB68002B7FF437AF2B6A36
S11350F01BB16A6A012128469847AB68002B7FF4EC
S11351002DAF00221D49384600F0B7F801221C4992
S1135110384600F0B2F821E72B6802332B60AB6805
S1135120023BAB60DFE71D49204600F003F900288D
S11351303FF41BAF0E4B53F82640A368002B7FF4BB
S113514014AF94F82830012B0BD03046FFF7C8FC7D
S1135150236A002B3FF409AF626A02212046984774
S113516003E73046FFF78AFCF2E700BF9CB9000072
S1135170D8030020130002001500030017000300E9
S113518016000300110002001000020012000200C9
S113519000C01FC015000200170002001600020024
S11351A0064B0361064B4361002383610362436240
S11351B04FF470328262C362704700BF0400000F74
S11351C000C01FC010B40C4602B14C1C022C0CD001
S11351D0836923F0100343EA04138361036923F012
S11351E0005303615DF8044B7047036943F00053B7
S11351F00361F7E7826901F0FE0322F00202134320
S11352008361836923F0010301F001011943816182
S113521070478369C1F3002223F0804343EA827319
S11352208361C9B201777047836923F08043C1F376
S1135230002243EA827323F00043C1F3402243EA8D
S1135240C2738361C9B2017770478369DB0F1B02A4
S11352500B80C269D2B213430B80704783695B0D24
S113526003F400730B808269D20F43EA02230B809C
S1135270C269D2B213430B80704710B48BB2090CCD
S1135280013906290ED8DFE801F0040D100D0D1ABE
S11352902400016901249C4021EA040102FA03F379
S11352A00B4303615DF8044B7047816901249C4002
S11352B021EA040102FA03F30B438361F2E7416A32
S11352C001249C4021EA040102FA03F30B434362E4
S11352D0E8E7816A01249C4021F4403121EA040179
S11352E002FA03F30B438362DCE70B0C013B062B4E
S11352F01ED8DFE803F0041D0B1D1D111700036900
S113530088B223FA00F000F001007047806989B286
S1135310C84000F001007047406A89B2C84000F0FC
S113532001007047806A89B2C84000F001007047EC
S1135330002070470B0C023B052B1DD8DFE803F05F
S1135340031C0A1C1016436988B223FA00F000F00B
S113535001007047C06989B2C84000F0010070477D
S1135360406A89B2C84000F001007047806A89B27F
S1135370C84000F0010070470020704738B505466A
S11353800C460A460949FFF778FF22460849284691
S1135390FFF773FF224607492846FFF76EFF2246B0
S11353A005492846FFF769FF38BD00BF1B0003000D
S11353B0180003001A0003001900030008B50020B8
S11353C0FFF79AFD08BD08B50120FFF795FD08BD5C
S11353D008B50220FFF790FD08BD60B170B5064620
S11353E00C460025204600F059F801351834AE4229
S11353F0F8D1002070BD0020704750F8213023F40C
S11354007023120402F470221A4340F821207047DA
S113541050F8213043F0807340F8213070474160E8
S1135420704781607047006970470000194B9842CB
S113543004D0194B984220D0FF207047102927D858
S1135440DFE801F0090C262626262626262626260F
S1135450260F1215180042F00100704742F00200B6
S1135460704742F00400704742F00800704702F0B1
S11354700E00704702F00D00704719B1012904D0E5
S1135480FF20704702F00B00704702F007007047DE
S1135490FF20704700A0044000B0044038B5044623
S11354A00068616850F82120237A012B3FD0002B3B
S11354B03AD0022B40D0657A2D0105F0100322F07A
S11354C050051D43A37A9B0103F040032B4323F4AF
S11354D0E065E37A082B32D01B0203F4E0632B432C
S11354E0227BD20392B223F478231343627B120407
S11354F002F470221343A27B0AB143F08073226842
S1135500616842F821302168D1F8C0206068012325
S1135510834022EA0302E37B83401343C1F8C03093
S1135520E37A012B21D038BD22F00202C3E722F036
S1135530010242F00202BEE742F00302BBE71B4B4A
S11355405A6802F00F02FFF771FFFF280BD0174BC8
S11355505A6822F00F025A605A6800F00F00104394
S113556058600023B8E70023B6E721694B69227D20
S113557022B1012A0AD0012A05D10BE06168012277
S11355808A4023EA020322695361CCE7606801225E
S113559082401343656808680122AA4020EA020099
S11355A0627DAA4002430A60EDE700BF0080044028
S11355B0024A136801331360704700BFE4030020FC
S11355C030B583B00446002502A941F8045D28469D
S11355D0FDF738F80B4A15600B49019BA1FB031337
S11355E09B095360956007231360084B1A681B6876
S11355F09B1AA34204D205490B689B1A9C42FBD810
S113560003B030BD10E000E0D34D6210E40300208D
S1135610014B1868704700BFE403002010B504462E
S1135620FEF7FEFA2378DBB2FF2B08D02378013390
S1135630DBB223700024FEF7E5FA204610BD0124F6
S1135640F9E738B504460D46FEF7EAFA2570FEF789
S1135650D9FA002038BD00207047000010B5194861
S1135660FFF7E1FE184A10601368C3F3404317497B
S11356700B701268C2F3402215490A7063B9144BC7
S11356801B78BBB9134C09212046FFF7C1FE112139
S11356902046FFF7BDFE10BD00220F4B1A700122F9
S11356A00E4B1A700A220E4B1A7011210948FFF78B
S11356B0AFFEE4E701220B4B1A7009210548FFF7FE
S11356C0A7FEDFE780F00F40E8030020ED03002091
S11356D0EE03002000B0044030050020EC0300205D
S11356E0C1060020EF03002010B50A4C0922112145
S11356F02046FFF782FE092211462046FFF77DFE71
S1135700002205493D20FEF759FA3D20FEF76EFAC6
S113571010BD00BF00B004405D56000008B500F0A5
S1135720BFF9034620B1034B1B780BB1024B1B7826
S1135730184608BDDA060020C90600200C4B18786C
S113574090B90C4B1B88132B10D910B54FF00104E2
S11357500022094B0949D1E90201FBF7B7FA08B95C
S11357604FF00004E0B210BD00207047704700BF46
S1135770C9060020C0040020000024407088FF1FD8
S1135780014B1878704700BFA887FF1F0000000076
S113579008B50BA3D3E900230749D1E90201FBF7BC
S11357A09FFA20B10A22054B1A70012008BD00207F
S11357B008BD00BFAFF300807088FF1FC106002042
S11357C0000000000070974010B51B4B1C7804B318
S11357D0012C25D0022C25D0032C21D101211748DE
S11357E0FFF71DFE002200231549C1E914231549C2
S11357F0C1E90023002001F0CBFC0022124B1A70F7
S1135800124B1B7863B91E23114A1370114A13708B
S113581006E0114B1888FAF763FF104BC3E9000147
S1135820204610BD0C4B18884008FAF769FF0B4B53
S1135830C3E90001F4E700BFD006002000F00F40E8
S11358404806002040060020D2060020EF03002076
S113585013040020120400204889FF1F6089FF1FE1
S1135860304B1B78EBB1304B1B78D3B12F4AB2F8D5
S1135870423001339BB2A2F84230B3F5FA7F3CD3F5
S11358809379002B35D10122284B5A710A22284BD7
S11358901A700022274B1A70244B00229A71A3F825
S11358A04220254AB2F8423001339BB2A2F842307A
S11358B01F4A1278012A1BD9B3F5C87F18D31E4B8F
S11358C09B792BB901221C4B5A710A22184B1A706E
S11358D01A4B9B792BB90122184B5A710A22144B8B
S11358E01A700023154A9371134A9371A2F8423037
S11358F0704701220F4B1A70CEE70E4A1278002A25
S1135900CFD0C72BCDD9094B9B792BB90122074B9B
S11359105A710A22064B1A70044B00229A71A3F89A
S11359204220BEE7CA060020C90600207088FF1F77
S1135930C1060020C80600200089FF1FE8040020DB
S113594082B010B5039319B1BDE8104002B070479E
S1135950124C224608210020FDF738FC6368B3F599
S1135960857FF1D10E4A0123937102F12403083497
S113597094E8030083E8030092F8281092F8293091
S113598043EA0123074AA2FB0323DB08064A1380E8
S113599040220021204602F0F7F8D5E72804002031
S11359A01888FF1FCDCCCCCCC00400202DE9F041D9
S11359B0334B08225A600025DD7201221A70314CE3
S11359C093E8070084E8070025702F4CDFF8CC80AB
S11359D02E4F2CE042462E490020FDF727FA208066
S11359E0274E3B46324603210020FDF781FB6080B1
S11359F0244D4FF4C0732A4605210020FDF778FB9F
S1135A00A0800023324606211846FDF7ABFBE08058
S1135A104FF485732A4608210020FDF7A3FB20815B
S1135A200023A372E37A042B10D80133E372238892
S1135A30002BCFD16388002BCCD1E388002BC9D1B4
S1135A402389002BC6D1A388002BC3D101210020B8
S1135A50FDF748F940F2FF13082200210846FDF73C
S1135A6059F900220B491046FDF7DCFC0A4A0821CB
S1135A700020FDF7ABFB0122034B9A72BDE8F081D5
S1135A80F403002000040020B087FF1F87A08001DA
S1135A90280200204159000028040020B8B6000064
S1135AA0174B1B880A2B0CD9164A1278911F8B426C
S1135AB01BDB91B28B421AD80A3A124B1A7000209F
S1135AC070475A1F92B2052A0CD80E4A1278911FB9
S1135AD08B420EDB91B28B420DD8023A094B1A70FD
S1135AE000207047042B08D970470020704700201D
S1135AF0704700207047002070470120704700BFA6
S1135B00C00400201304002038B5254BD3E9044514
S1135B100022244B20462946FBF7E2F8002833D024
S1135B20214B1878214B1A6810441860FAF7E8FDE5
S1135B3022462B46FAF74EFE04460D461C4B93EDC7
S1135B40007A1C4BD3ED007A67EE277A17EE900AA1
S1135B50FAF7E8FD02460B4620462946FAF764FFA9
S1135B60154BC3E900010CA3D3E90023FAF732FE75
S1135B7002460B46114CC4E90023114CC4E900232E
S1135B80FBF7C2F8C0B238BD0D4BD3E90001FBF7F7
S1135B90BBF8C0B238BD00BFF168E388B5F8E43E95
S1135BA07088FF1F0000F03FD1060020C887FF1F48
S1135BB0AC87FF1FBC87FF1F1804002020040020AF
S1135BC0C087FF1FF0B583B0254C21780901C9B205
S1135BD0244B83F835101026234A1670234A127872
S1135BE0D508234805705201D2B2224802708819A0
S1135BF02844104480B2204F38803888C04380B293
S1135C001E4F38803888013080B21D4F3880388864
S1135C10C0B283F8340083F82C0083F82D100020E0
S1135C2083F82E0083F82F6083F8300083F8315016
S1135C3083F8322083F833002C3300934FF42B7312
S1135C40104A0A21FDF774FA23780133DBB20F2BD3
S1135C5004D90022024B1A7003B0F0BD2370FBE795
S1135C600C0400201888FF1F1404002013040020D3
S1135C70F0030020F10300200E0400201004002093
S1135C80740400200004002010B504460B46094AA1
S1135C9001460120FDF766FA074B1B6822460121E5
S1135CA00846FDF737F8054A21460120FDF78EFA2C
S1135CB010BD00BFC40400206C88FF1F3405002001
S1135CC082B010B52DED028B059329B1BDEC028B8A
S1135CD0BDE8104002B07047884C224603210120E1
S1135CE0FDF774FA224604210120FDF76FFA2246DB
S1135CF005210120FDF76AFA224606210120FDF75D
S1135D0065FA224607210120FDF760FA22460221A6
S1135D100120FDF75BFA22460C210120FDF756FA1B
S1135D2022460D210120FDF751FA22460F210120C0
S1135D30FDF74CFA6368724A934200F0988129D9BE
S1135D40704A934200F0828066D86F4A934200F012
S1135D50EF816E4A9342B9D16D4B01229A7124337B
S1135D606C4A92E8030083E803006B4B1B7813B979
S1135D706A4B1B7843B1664B93F82B30012B61D0EF
S1135D8013B90022624B1A7140220021614801F0CC
S1135D90FBFE9BE7A2F51A22A2F21312934200F033
S1135DA0D5801FD95E4A934200F0468102F5042251
S1135DB002F58872934289D1504B1B7A594A137069
S1135DC0012B00F06C81022B00F07881032B00F092
S1135DD08481002B00F09081402200214D4801F085
S1135DE0D3FE73E7504A93427FF470AF01224F4BC6
S1135DF01A70494B1B7823B9484B1B78002B3FF48E
S1135E0065AF3E4BDB7B012B74D0002B7FF45EAF80
S1135E100122474B1A7059E7464A934200F07B81AE
S1135E2002F5007293427FF451AF3448437A003351
S1135E3018BF0123404A937140220021083001F029
S1135E40A3FE43E70122324B1A719DE73B4B03F15A
S1135E502402304903C982E8030093F8251093F81B
S1135E60262002EB012207EE902AF8EEE77ADFED16
S1135E70346A87EEA67A83ED067A93F8271093F8AE
S1135E80282002EB012207EE902AF8EEE77A9FED34
S1135E902D7A77EEC77AF2EE046A87EEA67A83ED5E
S1135EA0077A93F82430042B14D0022B18D01A4B01
S1135EB01B7813B9194B1B7833B1204B93F82B3053
S1135EC0A3B900221D4B1A7140220021114801F090
